{
	"data": {
		"bytecode": {
			"linkReferences": {},
			"object": "608060405234801561001057600080fd5b506102be806100206000396000f3fe608060405234801561001057600080fd5b50600436106100365760003560e01c80630cc4e8d81461003b578063b98464b31461006b575b600080fd5b610053610049366004610133565b5060609081908190565b604051610062939291906101bd565b60405180910390f35b610082610079366004610200565b60009392505050565b604051908152602001610062565b634e487b7160e01b600052604160045260246000fd5b600082601f8301126100b757600080fd5b813567ffffffffffffffff808211156100d2576100d2610090565b604051601f8301601f19908116603f011681019082821181831017156100fa576100fa610090565b8160405283815286602085880101111561011357600080fd5b836020870160208301376000602085830101528094505050505092915050565b60006020828403121561014557600080fd5b813567ffffffffffffffff81111561015c57600080fd5b610168848285016100a6565b949350505050565b6000815180845260005b818110156101965760208185018101518683018201520161017a565b818111156101a8576000602083870101525b50601f01601f19169290920160200192915050565b6060815260006101d06060830186610170565b82810360208401526101e28186610170565b905082810360408401526101f68185610170565b9695505050505050565b60008060006060848603121561021557600080fd5b833567ffffffffffffffff8082111561022d57600080fd5b610239878388016100a6565b9450602086013591508082111561024f57600080fd5b61025b878388016100a6565b9350604086013591508082111561027157600080fd5b5061027e868287016100a6565b915050925092509256fea264697066735822122041308c3cbe9f32da45d26a74ac1fb109cb7e174925890c684d8c673ab159616664736f6c634300080b0033",
			"opcodes": "PUSH1 0x80 PUSH1 0x40 MSTORE CALLVALUE DUP1 ISZERO PUSH2 0x10 JUMPI PUSH1 0x0 DUP1 REVERT JUMPDEST POP PUSH2 0x2BE DUP1 PUSH2 0x20 PUSH1 0x0 CODECOPY PUSH1 0x0 RETURN INVALID PUSH1 0x80 PUSH1 0x40 MSTORE CALLVALUE DUP1 ISZERO PUSH2 0x10 JUMPI PUSH1 0x0 DUP1 REVERT JUMPDEST POP PUSH1 0x4 CALLDATASIZE LT PUSH2 0x36 JUMPI PUSH1 0x0 CALLDATALOAD PUSH1 0xE0 SHR DUP1 PUSH4 0xCC4E8D8 EQ PUSH2 0x3B JUMPI DUP1 PUSH4 0xB98464B3 EQ PUSH2 0x6B JUMPI JUMPDEST PUSH1 0x0 DUP1 REVERT JUMPDEST PUSH2 0x53 PUSH2 0x49 CALLDATASIZE PUSH1 0x4 PUSH2 0x133 JUMP JUMPDEST POP PUSH1 0x60 SWAP1 DUP2 SWAP1 DUP2 SWAP1 JUMP JUMPDEST PUSH1 0x40 MLOAD PUSH2 0x62 SWAP4 SWAP3 SWAP2 SWAP1 PUSH2 0x1BD JUMP JUMPDEST PUSH1 0x40 MLOAD DUP1 SWAP2 SUB SWAP1 RETURN JUMPDEST PUSH2 0x82 PUSH2 0x79 CALLDATASIZE PUSH1 0x4 PUSH2 0x200 JUMP JUMPDEST PUSH1 0x0 SWAP4 SWAP3 POP POP POP JUMP JUMPDEST PUSH1 0x40 MLOAD SWAP1 DUP2 MSTORE PUSH1 0x20 ADD PUSH2 0x62 JUMP JUMPDEST PUSH4 0x4E487B71 PUSH1 0xE0 SHL PUSH1 0x0 MSTORE PUSH1 0x41 PUSH1 0x4 MSTORE PUSH1 0x24 PUSH1 0x0 REVERT JUMPDEST PUSH1 0x0 DUP3 PUSH1 0x1F DUP4 ADD SLT PUSH2 0xB7 JUMPI PUSH1 0x0 DUP1 REVERT JUMPDEST DUP2 CALLDATALOAD PUSH8 0xFFFFFFFFFFFFFFFF DUP1 DUP3 GT ISZERO PUSH2 0xD2 JUMPI PUSH2 0xD2 PUSH2 0x90 JUMP JUMPDEST PUSH1 0x40 MLOAD PUSH1 0x1F DUP4 ADD PUSH1 0x1F NOT SWAP1 DUP2 AND PUSH1 0x3F ADD AND DUP2 ADD SWAP1 DUP3 DUP3 GT DUP2 DUP4 LT OR ISZERO PUSH2 0xFA JUMPI PUSH2 0xFA PUSH2 0x90 JUMP JUMPDEST DUP2 PUSH1 0x40 MSTORE DUP4 DUP2 MSTORE DUP7 PUSH1 0x20 DUP6 DUP9 ADD ADD GT ISZERO PUSH2 0x113 JUMPI PUSH1 0x0 DUP1 REVERT JUMPDEST DUP4 PUSH1 0x20 DUP8 ADD PUSH1 0x20 DUP4 ADD CALLDATACOPY PUSH1 0x0 PUSH1 0x20 DUP6 DUP4 ADD ADD MSTORE DUP1 SWAP5 POP POP POP POP POP SWAP3 SWAP2 POP POP JUMP JUMPDEST PUSH1 0x0 PUSH1 0x20 DUP3 DUP5 SUB SLT ISZERO PUSH2 0x145 JUMPI PUSH1 0x0 DUP1 REVERT JUMPDEST DUP2 CALLDATALOAD PUSH8 0xFFFFFFFFFFFFFFFF DUP2 GT ISZERO PUSH2 0x15C JUMPI PUSH1 0x0 DUP1 REVERT JUMPDEST PUSH2 0x168 DUP5 DUP3 DUP6 ADD PUSH2 0xA6 JUMP JUMPDEST SWAP5 SWAP4 POP POP POP POP JUMP JUMPDEST PUSH1 0x0 DUP2 MLOAD DUP1 DUP5 MSTORE PUSH1 0x0 JUMPDEST DUP2 DUP2 LT ISZERO PUSH2 0x196 JUMPI PUSH1 0x20 DUP2 DUP6 ADD DUP2 ADD MLOAD DUP7 DUP4 ADD DUP3 ADD MSTORE ADD PUSH2 0x17A JUMP JUMPDEST DUP2 DUP2 GT ISZERO PUSH2 0x1A8 JUMPI PUSH1 0x0 PUSH1 0x20 DUP4 DUP8 ADD ADD MSTORE JUMPDEST POP PUSH1 0x1F ADD PUSH1 0x1F NOT AND SWAP3 SWAP1 SWAP3 ADD PUSH1 0x20 ADD SWAP3 SWAP2 POP POP JUMP JUMPDEST PUSH1 0x60 DUP2 MSTORE PUSH1 0x0 PUSH2 0x1D0 PUSH1 0x60 DUP4 ADD DUP7 PUSH2 0x170 JUMP JUMPDEST DUP3 DUP2 SUB PUSH1 0x20 DUP5 ADD MSTORE PUSH2 0x1E2 DUP2 DUP7 PUSH2 0x170 JUMP JUMPDEST SWAP1 POP DUP3 DUP2 SUB PUSH1 0x40 DUP5 ADD MSTORE PUSH2 0x1F6 DUP2 DUP6 PUSH2 0x170 JUMP JUMPDEST SWAP7 SWAP6 POP POP POP POP POP POP JUMP JUMPDEST PUSH1 0x0 DUP1 PUSH1 0x0 PUSH1 0x60 DUP5 DUP7 SUB SLT ISZERO PUSH2 0x215 JUMPI PUSH1 0x0 DUP1 REVERT JUMPDEST DUP4 CALLDATALOAD PUSH8 0xFFFFFFFFFFFFFFFF DUP1 DUP3 GT ISZERO PUSH2 0x22D JUMPI PUSH1 0x0 DUP1 REVERT JUMPDEST PUSH2 0x239 DUP8 DUP4 DUP9 ADD PUSH2 0xA6 JUMP JUMPDEST SWAP5 POP PUSH1 0x20 DUP7 ADD CALLDATALOAD SWAP2 POP DUP1 DUP3 GT ISZERO PUSH2 0x24F JUMPI PUSH1 0x0 DUP1 REVERT JUMPDEST PUSH2 0x25B DUP8 DUP4 DUP9 ADD PUSH2 0xA6 JUMP JUMPDEST SWAP4 POP PUSH1 0x40 DUP7 ADD CALLDATALOAD SWAP2 POP DUP1 DUP3 GT ISZERO PUSH2 0x271 JUMPI PUSH1 0x0 DUP1 REVERT JUMPDEST POP PUSH2 0x27E DUP7 DUP3 DUP8 ADD PUSH2 0xA6 JUMP JUMPDEST SWAP2 POP POP SWAP3 POP SWAP3 POP SWAP3 JUMP INVALID LOG2 PUSH5 0x6970667358 0x22 SLT KECCAK256 COINBASE ADDRESS DUP13 EXTCODECOPY 0xBE SWAP16 ORIGIN 0xDA GASLIMIT 0xD2 PUSH11 0x74AC1FB109CB7E17492589 0xC PUSH9 0x4D8C673AB159616664 PUSH20 0x6F6C634300080B00330000000000000000000000 "
		},
		"gasEstimates": {
			"creation": {
				"codeDepositCost": "140400",
				"executionCost": "183",
				"totalCost": "140583"
			},
			"external": {
				"addMessage(string,string,string)": "infinite",
				"getMessage(string)": "infinite"
			}
		},
		"methodIdentifiers": {
			"addMessage(string,string,string)": "b98464b3",
			"getMessage(string)": "0cc4e8d8"
		}
	},
	"abi": [
		{
			"inputs": [
				{
					"internalType": "string",
					"name": "_messageHash",
					"type": "string"
				},
				{
					"internalType": "string",
					"name": "_signature",
					"type": "string"
				},
				{
					"internalType": "string",
					"name": "_pubKey",
					"type": "string"
				}
			],
			"name": "addMessage",
			"outputs": [
				{
					"internalType": "uint256",
					"name": "",
					"type": "uint256"
				}
			],
			"stateMutability": "nonpayable",
			"type": "function"
		},
		{
			"inputs": [
				{
					"internalType": "string",
					"name": "_messageHash",
					"type": "string"
				}
			],
			"name": "getMessage",
			"outputs": [
				{
					"internalType": "string",
					"name": "",
					"type": "string"
				},
				{
					"internalType": "string",
					"name": "",
					"type": "string"
				},
				{
					"internalType": "string",
					"name": "",
					"type": "string"
				}
			],
			"stateMutability": "view",
			"type": "function"
		}
	]
}